{
  "abi": [
    {
      "inputs": [
        {
          "internalType": "address",
          "name": "_tokenMessenger",
          "type": "address"
        },
        {
          "internalType": "uint32",
          "name": "_nobleDomainId",
          "type": "uint32"
        },
        {
          "internalType": "bytes32",
          "name": "_domainRecipient",
          "type": "bytes32"
        },
        {
          "internalType": "uint32",
          "name": "_currentDomainId",
          "type": "uint32"
        },
        {
          "internalType": "address payable",
          "name": "_collector",
          "type": "address"
        }
      ],
      "stateMutability": "nonpayable",
      "type": "constructor"
    },
    {
      "anonymous": false,
      "inputs": [
        {
          "indexed": true,
          "internalType": "address",
          "name": "burnToken",
          "type": "address"
        },
        {
          "indexed": false,
          "internalType": "bytes32",
          "name": "mintRecipient",
          "type": "bytes32"
        },
        {
          "indexed": false,
          "internalType": "uint256",
          "name": "amountBurned",
          "type": "uint256"
        },
        {
          "indexed": false,
          "internalType": "uint256",
          "name": "fee",
          "type": "uint256"
        },
        {
          "indexed": false,
          "internalType": "uint32",
          "name": "source",
          "type": "uint32"
        },
        {
          "indexed": false,
          "internalType": "uint32",
          "name": "dest",
          "type": "uint32"
        }
      ],
      "name": "Collect",
      "type": "event"
    },
    {
      "anonymous": false,
      "inputs": [
        {
          "indexed": true,
          "internalType": "uint64",
          "name": "nonce",
          "type": "uint64"
        },
        {
          "indexed": true,
          "internalType": "uint64",
          "name": "metadataNonce",
          "type": "uint64"
        },
        {
          "indexed": false,
          "internalType": "bytes",
          "name": "metadata",
          "type": "bytes"
        }
      ],
      "name": "DepositForBurnMetadata",
      "type": "event"
    },
    {
      "inputs": [],
      "name": "collector",
      "outputs": [
        {
          "internalType": "address payable",
          "name": "",
          "type": "address"
        }
      ],
      "stateMutability": "view",
      "type": "function"
    },
    {
      "inputs": [],
      "name": "currentDomainId",
      "outputs": [
        {
          "internalType": "uint32",
          "name": "",
          "type": "uint32"
        }
      ],
      "stateMutability": "view",
      "type": "function"
    },
    {
      "inputs": [
        {
          "internalType": "uint256",
          "name": "amount",
          "type": "uint256"
        },
        {
          "internalType": "uint32",
          "name": "destinationDomain",
          "type": "uint32"
        },
        {
          "internalType": "bytes32",
          "name": "mintRecipient",
          "type": "bytes32"
        },
        {
          "internalType": "address",
          "name": "burnToken",
          "type": "address"
        },
        {
          "internalType": "bytes32",
          "name": "destinationCaller",
          "type": "bytes32"
        }
      ],
      "name": "depositForBurn",
      "outputs": [],
      "stateMutability": "nonpayable",
      "type": "function"
    },
    {
      "inputs": [
        {
          "internalType": "uint64",
          "name": "channel",
          "type": "uint64"
        },
        {
          "internalType": "bytes32",
          "name": "destinationBech32Prefix",
          "type": "bytes32"
        },
        {
          "internalType": "bytes32",
          "name": "destinationRecipient",
          "type": "bytes32"
        },
        {
          "internalType": "uint256",
          "name": "amount",
          "type": "uint256"
        },
        {
          "internalType": "bytes32",
          "name": "mintRecipient",
          "type": "bytes32"
        },
        {
          "internalType": "address",
          "name": "burnToken",
          "type": "address"
        },
        {
          "internalType": "bytes",
          "name": "memo",
          "type": "bytes"
        }
      ],
      "name": "depositForBurn",
      "outputs": [
        {
          "internalType": "uint64",
          "name": "nonce",
          "type": "uint64"
        }
      ],
      "stateMutability": "nonpayable",
      "type": "function"
    },
    {
      "inputs": [
        {
          "internalType": "uint64",
          "name": "channel",
          "type": "uint64"
        },
        {
          "internalType": "bytes32",
          "name": "destinationBech32Prefix",
          "type": "bytes32"
        },
        {
          "internalType": "bytes32",
          "name": "destinationRecipient",
          "type": "bytes32"
        },
        {
          "internalType": "uint256",
          "name": "amount",
          "type": "uint256"
        },
        {
          "internalType": "bytes32",
          "name": "mintRecipient",
          "type": "bytes32"
        },
        {
          "internalType": "address",
          "name": "burnToken",
          "type": "address"
        },
        {
          "internalType": "bytes32",
          "name": "destinationCaller",
          "type": "bytes32"
        },
        {
          "internalType": "bytes",
          "name": "memo",
          "type": "bytes"
        }
      ],
      "name": "depositForBurnWithCaller",
      "outputs": [
        {
          "internalType": "uint64",
          "name": "nonce",
          "type": "uint64"
        }
      ],
      "stateMutability": "nonpayable",
      "type": "function"
    },
    {
      "inputs": [],
      "name": "domainRecipient",
      "outputs": [
        {
          "internalType": "bytes32",
          "name": "",
          "type": "bytes32"
        }
      ],
      "stateMutability": "view",
      "type": "function"
    },
    {
      "inputs": [
        {
          "internalType": "uint32",
          "name": "",
          "type": "uint32"
        }
      ],
      "name": "feeMap",
      "outputs": [
        {
          "internalType": "uint256",
          "name": "percFee",
          "type": "uint256"
        },
        {
          "internalType": "uint256",
          "name": "flatFee",
          "type": "uint256"
        },
        {
          "internalType": "bool",
          "name": "isInitialized",
          "type": "bool"
        }
      ],
      "stateMutability": "view",
      "type": "function"
    },
    {
      "inputs": [],
      "name": "messageTransmitter",
      "outputs": [
        {
          "internalType": "contract MessageTransmitter",
          "name": "",
          "type": "address"
        }
      ],
      "stateMutability": "view",
      "type": "function"
    },
    {
      "inputs": [],
      "name": "nobleDomainId",
      "outputs": [
        {
          "internalType": "uint32",
          "name": "",
          "type": "uint32"
        }
      ],
      "stateMutability": "view",
      "type": "function"
    },
    {
      "inputs": [],
      "name": "owner",
      "outputs": [
        {
          "internalType": "address",
          "name": "",
          "type": "address"
        }
      ],
      "stateMutability": "view",
      "type": "function"
    },
    {
      "inputs": [
        {
          "internalType": "uint256",
          "name": "amount",
          "type": "uint256"
        },
        {
          "internalType": "bytes32",
          "name": "mintRecipient",
          "type": "bytes32"
        },
        {
          "internalType": "address",
          "name": "burnToken",
          "type": "address"
        },
        {
          "internalType": "bytes",
          "name": "metadata",
          "type": "bytes"
        }
      ],
      "name": "rawDepositForBurn",
      "outputs": [
        {
          "internalType": "uint64",
          "name": "nonce",
          "type": "uint64"
        }
      ],
      "stateMutability": "nonpayable",
      "type": "function"
    },
    {
      "inputs": [
        {
          "internalType": "uint256",
          "name": "amount",
          "type": "uint256"
        },
        {
          "internalType": "bytes32",
          "name": "mintRecipient",
          "type": "bytes32"
        },
        {
          "internalType": "address",
          "name": "burnToken",
          "type": "address"
        },
        {
          "internalType": "bytes32",
          "name": "destinationCaller",
          "type": "bytes32"
        },
        {
          "internalType": "bytes",
          "name": "metadata",
          "type": "bytes"
        }
      ],
      "name": "rawDepositForBurnWithCaller",
      "outputs": [
        {
          "internalType": "uint64",
          "name": "nonce",
          "type": "uint64"
        }
      ],
      "stateMutability": "nonpayable",
      "type": "function"
    },
    {
      "inputs": [
        {
          "internalType": "uint32",
          "name": "destinationDomain",
          "type": "uint32"
        },
        {
          "internalType": "uint256",
          "name": "percFee",
          "type": "uint256"
        },
        {
          "internalType": "uint256",
          "name": "flatFee",
          "type": "uint256"
        }
      ],
      "name": "setFee",
      "outputs": [],
      "stateMutability": "nonpayable",
      "type": "function"
    },
    {
      "inputs": [],
      "name": "tokenMessenger",
      "outputs": [
        {
          "internalType": "contract TokenMessenger",
          "name": "",
          "type": "address"
        }
      ],
      "stateMutability": "view",
      "type": "function"
    },
    {
      "inputs": [
        {
          "internalType": "address payable",
          "name": "newCollector",
          "type": "address"
        }
      ],
      "name": "updateCollector",
      "outputs": [],
      "stateMutability": "nonpayable",
      "type": "function"
    },
    {
      "inputs": [
        {
          "internalType": "address",
          "name": "newOwner",
          "type": "address"
        }
      ],
      "name": "updateOwner",
      "outputs": [],
      "stateMutability": "nonpayable",
      "type": "function"
    }
  ],
  "bytecode": {
    "object": "0x61010060405234801561001157600080fd5b50604051611c5d380380611c5d833981810160405260a081101561003457600080fd5b508051602082015160408301516060840151608090940151929391929091906001600160a01b0385166100ae576040805162461bcd60e51b815260206004820152601660248201527f546f6b656e4d657373656e676572206e6f742073657400000000000000000000604482015290519081900360640190fd5b600080546001600160a01b0319166001600160a01b03878116919091179182905560408051632c12192160e01b815290519290911691632c12192191600480820192602092909190829003018186803b15801561010a57600080fd5b505afa15801561011e573d6000803e3d6000fd5b505050506040513d602081101561013457600080fd5b50516001600160601b0319606082901b166080526001600160e01b031960e086811b821660c05285815284901b1660a052600280546001600160a01b039384166001600160a01b031991821617909155600180549091163317905516935063ffffffff908116921690611a3861022560003980610859528061127c52806116f752508061057f528061062f528061077c528061082a52806109bf5280610c805280610f3652806114d3528061162152806116c852806118515250806109975280610aea5280610f0e52806118295250806108a05280610b0e52806110d652806112a352806117375250611a386000f3fe608060405234801561001057600080fd5b50600436106101005760003560e01c8063913e77ad11610097578063ded8b70911610066578063ded8b70914610350578063e95f1219146103fe578063ea04e66c14610418578063f1e788d4146104bd57610100565b8063913e77ad146102af57806395e9cf31146102b7578063c316c98b146102fb578063c778ee731461032157610100565b80637b04c181116100d35780637b04c18114610234578063880cdc311461023c5780638da5cb5b146102645780638e49425b1461026c57610100565b80630167f50a14610105578063042734ee1461012657806346117830146102085780634be85f051461022c575b600080fd5b61010d61057d565b6040805163ffffffff9092168252519081900360200190f35b6101eb600480360360a081101561013c57600080fd5b8135916020810135916001600160a01b036040830135169160608101359181019060a081016080820135600160201b81111561017757600080fd5b82018360208201111561018957600080fd5b803590602001918460018302840111600160201b831117156101aa57600080fd5b91908080601f0160208091040260200160405190810160405280939291908181526020018383808284376000920191909152509295506105a1945050505050565b6040805167ffffffffffffffff9092168252519081900360200190f35b610210610ad9565b604080516001600160a01b039092168252519081900360200190f35b61010d610ae8565b610210610b0c565b6102626004803603602081101561025257600080fd5b50356001600160a01b0316610b30565b005b610210610bb1565b61028f6004803603602081101561028257600080fd5b503563ffffffff16610bc0565b604080519384526020840192909252151582820152519081900360600190f35b610210610be4565b610262600480360360a08110156102cd57600080fd5b5080359063ffffffff602082013516906040810135906001600160a01b036060820135169060800135610bf3565b6102626004803603602081101561031157600080fd5b50356001600160a01b0316610f9c565b6102626004803603606081101561033757600080fd5b5063ffffffff813516906020810135906040013561101d565b6101eb600480360361010081101561036757600080fd5b67ffffffffffffffff823516916020810135916040820135916060810135916080820135916001600160a01b0360a0820135169160c08201359190810190610100810160e0820135600160201b8111156103c057600080fd5b8201836020820111156103d257600080fd5b803590602001918460018302840111600160201b831117156103f357600080fd5b5090925090506110d1565b61040661127a565b60408051918252519081900360200190f35b6101eb600480360360e081101561042e57600080fd5b67ffffffffffffffff823516916020810135916040820135916060810135916080820135916001600160a01b0360a0820135169181019060e0810160c0820135600160201b81111561047f57600080fd5b82018360208201111561049157600080fd5b803590602001918460018302840111600160201b831117156104b257600080fd5b50909250905061129e565b6101eb600480360360808110156104d357600080fd5b8135916020810135916001600160a01b036040830135169190810190608081016060820135600160201b81111561050957600080fd5b82018360208201111561051b57600080fd5b803590602001918460018302840111600160201b8311171561053c57600080fd5b91908080601f016020809104026020016040519081016040528093929190818152602001838380828437600092019190915250929550611445945050505050565b7f000000000000000000000000000000000000000000000000000000000000000081565b604080516323b872dd60e01b815233600482015230602482015260448101879052905160009185916001600160a01b038316916323b872dd91606480830192602092919082900301818887803b1580156105fa57600080fd5b505af115801561060e573d6000803e3d6000fd5b505050506040513d602081101561062457600080fd5b5060009050610653887f000000000000000000000000000000000000000000000000000000000000000061196a565b6002546040805163a9059cbb60e01b81526001600160a01b0392831660048201526024810184905290519293509084169163a9059cbb916044808201926020929091908290030181600087803b1580156106ac57600080fd5b505af11580156106c0573d6000803e3d6000fd5b505050506040513d60208110156106d657600080fd5b5050600080546040805163095ea7b360e01b81526001600160a01b039283166004820152848c03602482015290519185169263095ea7b3926044808401936020939083900390910190829087803b15801561073057600080fd5b505af1158015610744573d6000803e3d6000fd5b505050506040513d602081101561075a57600080fd5b50506000805460408051637c2b6edb60e11b8152600481018c905263ffffffff7f0000000000000000000000000000000000000000000000000000000000000000166024820152604481018b90526001600160a01b038a81166064830152608482018a90529151919092169263f856ddb69260a480820193602093909283900390910190829087803b1580156107ef57600080fd5b505af1158015610803573d6000803e3d6000fd5b505050506040513d602081101561081957600080fd5b505160405163f7259a7560e01b81527f000000000000000000000000000000000000000000000000000000000000000063ffffffff8116600483019081527f000000000000000000000000000000000000000000000000000000000000000060248401819052604484018a90526080606485019081528951608486015289519598506000957f00000000000000000000000000000000000000000000000000000000000000006001600160a01b03169563f7259a7595948d938d939192909160a49091019060208501908083838e5b838110156109005781810151838201526020016108e8565b50505050905090810190601f16801561092d5780820380516001836020036101000a031916815260200191505b5095505050505050602060405180830381600087803b15801561094f57600080fd5b505af1158015610963573d6000803e3d6000fd5b505050506040513d602081101561097957600080fd5b5051604080518a8152848c03602082015280820185905263ffffffff7f0000000000000000000000000000000000000000000000000000000000000000811660608301527f000000000000000000000000000000000000000000000000000000000000000016608082015290519192506001600160a01b038916917f382e1aebaff328a31819e42bd64697c3ad7d18ad88fd5030432abe41d444dab39181900360a00190a28067ffffffffffffffff168467ffffffffffffffff167f4c307f410548552b5dcf79f57f3f1f0b2c9dca65ec77d0fd78e8d476a7754772876040518080602001828103825283818151815260200191508051906020019080838360005b83811015610a93578181015183820152602001610a7b565b50505050905090810190601f168015610ac05780820380516001836020036101000a031916815260200191505b509250505060405180910390a350505095945050505050565b6000546001600160a01b031681565b7f000000000000000000000000000000000000000000000000000000000000000081565b7f000000000000000000000000000000000000000000000000000000000000000081565b6001546001600160a01b03163314610b8f576040805162461bcd60e51b815260206004820152601b60248201527f4f6e6c79206f776e65722063616e20757064617465206f776e65720000000000604482015290519081900360640190fd5b600180546001600160a01b0319166001600160a01b0392909216919091179055565b6001546001600160a01b031681565b60036020526000908152604090208054600182015460029092015490919060ff1683565b6002546001600160a01b031681565b604080516323b872dd60e01b815233600482015230602482015260448101879052905183916001600160a01b038316916323b872dd916064808201926020929091908290030181600087803b158015610c4b57600080fd5b505af1158015610c5f573d6000803e3d6000fd5b505050506040513d6020811015610c7557600080fd5b5060009050610ca4877f000000000000000000000000000000000000000000000000000000000000000061196a565b6002546040805163a9059cbb60e01b81526001600160a01b0392831660048201526024810184905290519293509084169163a9059cbb916044808201926020929091908290030181600087803b158015610cfd57600080fd5b505af1158015610d11573d6000803e3d6000fd5b505050506040513d6020811015610d2757600080fd5b5050600080546040805163095ea7b360e01b81526001600160a01b039283166004820152848b03602482015290519185169263095ea7b3926044808401936020939083900390910190829087803b158015610d8157600080fd5b505af1158015610d95573d6000803e3d6000fd5b505050506040513d6020811015610dab57600080fd5b505082610e515760008054604080516337e9a82760e11b8152848b03600482015263ffffffff8a166024820152604481018990526001600160a01b03888116606483015291519190921692636fd3504e92608480820193602093909283900390910190829087803b158015610e1f57600080fd5b505af1158015610e33573d6000803e3d6000fd5b505050506040513d6020811015610e4957600080fd5b50610ef29050565b6000805460408051637c2b6edb60e11b8152848b03600482015263ffffffff8a166024820152604481018990526001600160a01b038881166064830152608482018890529151919092169263f856ddb69260a480820193602093909283900390910190829087803b158015610ec557600080fd5b505af1158015610ed9573d6000803e3d6000fd5b505050506040513d6020811015610eef57600080fd5b50505b60408051868152828903602082015280820183905263ffffffff7f0000000000000000000000000000000000000000000000000000000000000000811660608301527f000000000000000000000000000000000000000000000000000000000000000016608082015290516001600160a01b038616917f382e1aebaff328a31819e42bd64697c3ad7d18ad88fd5030432abe41d444dab3919081900360a00190a250505050505050565b6001546001600160a01b03163314610ffb576040805162461bcd60e51b815260206004820152601f60248201527f4f6e6c79206f776e65722063616e2075706461746520636f6c6c6563746f7200604482015290519081900360640190fd5b600280546001600160a01b0319166001600160a01b0392909216919091179055565b6001546001600160a01b0316331461107c576040805162461bcd60e51b815260206004820152601e60248201527f4f6e6c7920746865206f776e65722063616e2075706461746520666565730000604482015290519081900360640190fd5b604080516060810182529283526020808401928352600184830181815263ffffffff96909616600090815260039092529190209251835590519082015590516002909101805460ff1916911515919091179055565b6000807f00000000000000000000000000000000000000000000000000000000000000006001600160a01b0316638371744e6040518163ffffffff1660e01b815260040160206040518083038186803b15801561112d57600080fd5b505afa158015611141573d6000803e3d6000fd5b505050506040513d602081101561115757600080fd5b5051604080516382c947b760e01b8152336004820152905191925060009173__$0163656a4df1aac712416ff9309e0048e0$__916382c947b7916024808301926020929190829003018186803b1580156111b057600080fd5b505af41580156111c4573d6000803e3d6000fd5b505050506040513d60208110156111da57600080fd5b81019080805190602001909291905050509050600082828e8e8e8a8a604051602001808867ffffffffffffffff1660c01b81526008018781526020018667ffffffffffffffff1660c01b81526008018581526020018481526020018383808284378083019250505097505050505050505060405160208183030381529060405290506112698a8a8a8a856105a1565b9d9c50505050505050505050505050565b7f000000000000000000000000000000000000000000000000000000000000000081565b6000807f00000000000000000000000000000000000000000000000000000000000000006001600160a01b0316638371744e6040518163ffffffff1660e01b815260040160206040518083038186803b1580156112fa57600080fd5b505afa15801561130e573d6000803e3d6000fd5b505050506040513d602081101561132457600080fd5b5051604080516382c947b760e01b8152336004820152905191925060009173__$0163656a4df1aac712416ff9309e0048e0$__916382c947b7916024808301926020929190829003018186803b15801561137d57600080fd5b505af4158015611391573d6000803e3d6000fd5b505050506040513d60208110156113a757600080fd5b81019080805190602001909291905050509050600082828d8d8d8a8a604051602001808867ffffffffffffffff1660c01b81526008018781526020018667ffffffffffffffff1660c01b815260080185815260200184815260200183838082843780830192505050975050505050505050604051602081830303815290604052905061143589898984611445565b9c9b505050505050505050505050565b604080516323b872dd60e01b815233600482015230602482015260448101869052905160009184916001600160a01b038316916323b872dd91606480830192602092919082900301818887803b15801561149e57600080fd5b505af11580156114b2573d6000803e3d6000fd5b505050506040513d60208110156114c857600080fd5b50600090506114f7877f000000000000000000000000000000000000000000000000000000000000000061196a565b6002546040805163a9059cbb60e01b81526001600160a01b0392831660048201526024810184905290519293509084169163a9059cbb916044808201926020929091908290030181600087803b15801561155057600080fd5b505af1158015611564573d6000803e3d6000fd5b505050506040513d602081101561157a57600080fd5b5050600080546040805163095ea7b360e01b81526001600160a01b039283166004820152848b03602482015290519185169263095ea7b3926044808401936020939083900390910190829087803b1580156115d457600080fd5b505af11580156115e8573d6000803e3d6000fd5b505050506040513d60208110156115fe57600080fd5b505060008054604080516337e9a82760e11b8152848b03600482015263ffffffff7f0000000000000000000000000000000000000000000000000000000000000000166024820152604481018a90526001600160a01b03898116606483015291519190921692636fd3504e92608480820193602093909283900390910190829087803b15801561168d57600080fd5b505af11580156116a1573d6000803e3d6000fd5b505050506040513d60208110156116b757600080fd5b50516040516302e91a6f60e21b81527f000000000000000000000000000000000000000000000000000000000000000063ffffffff8116600483019081527f0000000000000000000000000000000000000000000000000000000000000000602484018190526060604485019081528951606486015289519598506000957f00000000000000000000000000000000000000000000000000000000000000006001600160a01b031695630ba469bc95948c93909290916084019060208501908083838d5b8381101561179357818101518382015260200161177b565b50505050905090810190601f1680156117c05780820380516001836020036101000a031916815260200191505b50945050505050602060405180830381600087803b1580156117e157600080fd5b505af11580156117f5573d6000803e3d6000fd5b505050506040513d602081101561180b57600080fd5b505160408051898152848b03602082015280820185905263ffffffff7f0000000000000000000000000000000000000000000000000000000000000000811660608301527f000000000000000000000000000000000000000000000000000000000000000016608082015290519192506001600160a01b038816917f382e1aebaff328a31819e42bd64697c3ad7d18ad88fd5030432abe41d444dab39181900360a00190a28067ffffffffffffffff168467ffffffffffffffff167f4c307f410548552b5dcf79f57f3f1f0b2c9dca65ec77d0fd78e8d476a7754772876040518080602001828103825283818151815260200191508051906020019080838360005b8381101561192557818101518382015260200161190d565b50505050905090810190601f1680156119525780820380516001836020036101000a031916815260200191505b509250505060405180910390a3505050949350505050565b63ffffffff811660009081526003602090815260408083208151606081018352815481526001820154938101939093526002015460ff1615159082018190526119eb576040805162461bcd60e51b815260206004820152600e60248201526d2332b2903737ba103337bab7321760911b604482015290519081900360640190fd5b60208101518151612710908602040194935050505056fea2646970667358221220d79fcd1fb055fb83b6fc303089809704fdb731d0389e0033f7ac16db2249da8164736f6c63430007060033",
    "linkReferences": {
      "lib/evm-cctp-contracts/src/messages/Message.sol": {
        "Message": [
          {
            "start": 5020,
            "length": 20
          },
          {
            "start": 5481,
            "length": 20
          }
        ]
      }
    }
  },
  "methodIdentifiers": {
    "collector()": "913e77ad",
    "currentDomainId()": "4be85f05",
    "depositForBurn(uint256,uint32,bytes32,address,bytes32)": "95e9cf31",
    "depositForBurn(uint64,bytes32,bytes32,uint256,bytes32,address,bytes)": "ea04e66c",
    "depositForBurnWithCaller(uint64,bytes32,bytes32,uint256,bytes32,address,bytes32,bytes)": "ded8b709",
    "domainRecipient()": "e95f1219",
    "feeMap(uint32)": "8e49425b",
    "messageTransmitter()": "7b04c181",
    "nobleDomainId()": "0167f50a",
    "owner()": "8da5cb5b",
    "rawDepositForBurn(uint256,bytes32,address,bytes)": "f1e788d4",
    "rawDepositForBurnWithCaller(uint256,bytes32,address,bytes32,bytes)": "042734ee",
    "setFee(uint32,uint256,uint256)": "c778ee73",
    "tokenMessenger()": "46117830",
    "updateCollector(address)": "c316c98b",
    "updateOwner(address)": "880cdc31"
  },
  "id": 35
}