{
  "abi": [
    {
      "inputs": [
        {
          "internalType": "address",
          "name": "_tokenMessenger",
          "type": "address"
        },
        {
          "internalType": "uint32",
          "name": "_domainNumber",
          "type": "uint32"
        },
        {
          "internalType": "bytes32",
          "name": "_domainRecipient",
          "type": "bytes32"
        }
      ],
      "stateMutability": "nonpayable",
      "type": "constructor"
    },
    {
      "anonymous": false,
      "inputs": [
        {
          "indexed": true,
          "internalType": "uint64",
          "name": "nonce",
          "type": "uint64"
        },
        {
          "indexed": true,
          "internalType": "uint64",
          "name": "metadataNonce",
          "type": "uint64"
        },
        {
          "indexed": false,
          "internalType": "bytes",
          "name": "metadata",
          "type": "bytes"
        }
      ],
      "name": "DepositForBurnMetadata",
      "type": "event"
    },
    {
      "inputs": [
        {
          "internalType": "uint64",
          "name": "channel",
          "type": "uint64"
        },
        {
          "internalType": "bytes32",
          "name": "destinationBech32Prefix",
          "type": "bytes32"
        },
        {
          "internalType": "bytes32",
          "name": "destinationRecipient",
          "type": "bytes32"
        },
        {
          "internalType": "uint256",
          "name": "amount",
          "type": "uint256"
        },
        {
          "internalType": "bytes32",
          "name": "mintRecipient",
          "type": "bytes32"
        },
        {
          "internalType": "address",
          "name": "burnToken",
          "type": "address"
        },
        {
          "internalType": "bytes",
          "name": "memo",
          "type": "bytes"
        }
      ],
      "name": "depositForBurn",
      "outputs": [
        {
          "internalType": "uint64",
          "name": "nonce",
          "type": "uint64"
        }
      ],
      "stateMutability": "nonpayable",
      "type": "function"
    },
    {
      "inputs": [
        {
          "internalType": "uint64",
          "name": "channel",
          "type": "uint64"
        },
        {
          "internalType": "bytes32",
          "name": "destinationBech32Prefix",
          "type": "bytes32"
        },
        {
          "internalType": "bytes32",
          "name": "destinationRecipient",
          "type": "bytes32"
        },
        {
          "internalType": "uint256",
          "name": "amount",
          "type": "uint256"
        },
        {
          "internalType": "bytes32",
          "name": "mintRecipient",
          "type": "bytes32"
        },
        {
          "internalType": "address",
          "name": "burnToken",
          "type": "address"
        },
        {
          "internalType": "bytes32",
          "name": "destinationCaller",
          "type": "bytes32"
        },
        {
          "internalType": "bytes",
          "name": "memo",
          "type": "bytes"
        }
      ],
      "name": "depositForBurnWithCaller",
      "outputs": [
        {
          "internalType": "uint64",
          "name": "nonce",
          "type": "uint64"
        }
      ],
      "stateMutability": "nonpayable",
      "type": "function"
    },
    {
      "inputs": [],
      "name": "domainNumber",
      "outputs": [
        {
          "internalType": "uint32",
          "name": "",
          "type": "uint32"
        }
      ],
      "stateMutability": "view",
      "type": "function"
    },
    {
      "inputs": [],
      "name": "domainRecipient",
      "outputs": [
        {
          "internalType": "bytes32",
          "name": "",
          "type": "bytes32"
        }
      ],
      "stateMutability": "view",
      "type": "function"
    },
    {
      "inputs": [],
      "name": "messageTransmitter",
      "outputs": [
        {
          "internalType": "contract MessageTransmitter",
          "name": "",
          "type": "address"
        }
      ],
      "stateMutability": "view",
      "type": "function"
    },
    {
      "inputs": [
        {
          "internalType": "uint256",
          "name": "amount",
          "type": "uint256"
        },
        {
          "internalType": "bytes32",
          "name": "mintRecipient",
          "type": "bytes32"
        },
        {
          "internalType": "address",
          "name": "burnToken",
          "type": "address"
        },
        {
          "internalType": "bytes",
          "name": "metadata",
          "type": "bytes"
        }
      ],
      "name": "rawDepositForBurn",
      "outputs": [
        {
          "internalType": "uint64",
          "name": "nonce",
          "type": "uint64"
        }
      ],
      "stateMutability": "nonpayable",
      "type": "function"
    },
    {
      "inputs": [
        {
          "internalType": "uint256",
          "name": "amount",
          "type": "uint256"
        },
        {
          "internalType": "bytes32",
          "name": "mintRecipient",
          "type": "bytes32"
        },
        {
          "internalType": "address",
          "name": "burnToken",
          "type": "address"
        },
        {
          "internalType": "bytes32",
          "name": "destinationCaller",
          "type": "bytes32"
        },
        {
          "internalType": "bytes",
          "name": "metadata",
          "type": "bytes"
        }
      ],
      "name": "rawDepositForBurnWithCaller",
      "outputs": [
        {
          "internalType": "uint64",
          "name": "nonce",
          "type": "uint64"
        }
      ],
      "stateMutability": "nonpayable",
      "type": "function"
    },
    {
      "inputs": [],
      "name": "tokenMessenger",
      "outputs": [
        {
          "internalType": "contract TokenMessenger",
          "name": "",
          "type": "address"
        }
      ],
      "stateMutability": "view",
      "type": "function"
    }
  ],
  "bytecode": {
    "object": "0x60e060405234801561001057600080fd5b5060405161104f38038061104f8339818101604052606081101561003357600080fd5b50805160208201516040909201519091906001600160a01b03831661009f576040805162461bcd60e51b815260206004820152601660248201527f546f6b656e4d657373656e676572206e6f742073657400000000000000000000604482015290519081900360640190fd5b600080546001600160a01b0319166001600160a01b03858116919091179182905560408051632c12192160e01b815290519290911691632c12192191600480820192602092909190829003018186803b1580156100fb57600080fd5b505afa15801561010f573d6000803e3d6000fd5b505050506040513d602081101561012557600080fd5b5051606081901b6001600160601b03191660805260e083901b6001600160e01b03191660a05260c08290526001600160a01b0316925063ffffffff90911690610e966101b9600039806105ee52806109565280610c9552508061051152806105bf52806107d75280610bbf5280610c6652508061063552806107fb5280610822528061097d5280610cd55250610e966000f3fe608060405234801561001057600080fd5b50600436106100885760003560e01c8063ded8b7091161005b578063ded8b709146101bc578063e95f12191461026a578063ea04e66c14610284578063f1e788d41461032957610088565b8063042734ee1461008d578063461178301461016f57806352d440ea146101935780637b04c181146101b4575b600080fd5b610152600480360360a08110156100a357600080fd5b8135916020810135916001600160a01b036040830135169160608101359181019060a081016080820135600160201b8111156100de57600080fd5b8201836020820111156100f057600080fd5b803590602001918460018302840111600160201b8311171561011157600080fd5b91908080601f0160208091040260200160405190810160405280939291908181526020018383808284376000920191909152509295506103e9945050505050565b6040805167ffffffffffffffff9092168252519081900360200190f35b6101776107c6565b604080516001600160a01b039092168252519081900360200190f35b61019b6107d5565b6040805163ffffffff9092168252519081900360200190f35b6101776107f9565b61015260048036036101008110156101d357600080fd5b67ffffffffffffffff823516916020810135916040820135916060810135916080820135916001600160a01b0360a0820135169160c08201359190810190610100810160e0820135600160201b81111561022c57600080fd5b82018360208201111561023e57600080fd5b803590602001918460018302840111600160201b8311171561025f57600080fd5b50909250905061081d565b610272610954565b60408051918252519081900360200190f35b610152600480360360e081101561029a57600080fd5b67ffffffffffffffff823516916020810135916040820135916060810135916080820135916001600160a01b0360a0820135169181019060e0810160c0820135600160201b8111156102eb57600080fd5b8201836020820111156102fd57600080fd5b803590602001918460018302840111600160201b8311171561031e57600080fd5b509092509050610978565b6101526004803603608081101561033f57600080fd5b8135916020810135916001600160a01b036040830135169190810190608081016060820135600160201b81111561037557600080fd5b82018360208201111561038757600080fd5b803590602001918460018302840111600160201b831117156103a857600080fd5b91908080601f016020809104026020016040519081016040528093929190818152602001838380828437600092019190915250929550610a97945050505050565b604080516323b872dd60e01b815233600482015230602482015260448101879052905160009185916001600160a01b038316916323b872dd91606480830192602092919082900301818887803b15801561044257600080fd5b505af1158015610456573d6000803e3d6000fd5b505050506040513d602081101561046c57600080fd5b5050600080546040805163095ea7b360e01b81526001600160a01b039283166004820152602481018b905290519184169263095ea7b3926044808401936020939083900390910190829087803b1580156104c557600080fd5b505af11580156104d9573d6000803e3d6000fd5b505050506040513d60208110156104ef57600080fd5b50506000805460408051637c2b6edb60e11b8152600481018b905263ffffffff7f0000000000000000000000000000000000000000000000000000000000000000166024820152604481018a90526001600160a01b038981166064830152608482018990529151919092169263f856ddb69260a480820193602093909283900390910190829087803b15801561058457600080fd5b505af1158015610598573d6000803e3d6000fd5b505050506040513d60208110156105ae57600080fd5b505160405163f7259a7560e01b81527f000000000000000000000000000000000000000000000000000000000000000063ffffffff8116600483019081527f000000000000000000000000000000000000000000000000000000000000000060248401819052604484018990526080606485019081528851608486015288519597506000957f00000000000000000000000000000000000000000000000000000000000000006001600160a01b03169563f7259a7595948c938c939192909160a49091019060208501908083838e5b8381101561069557818101518382015260200161067d565b50505050905090810190601f1680156106c25780820380516001836020036101000a031916815260200191505b5095505050505050602060405180830381600087803b1580156106e457600080fd5b505af11580156106f8573d6000803e3d6000fd5b505050506040513d602081101561070e57600080fd5b5051604080516020808252875182820152875193945067ffffffffffffffff80861694908816937f4c307f410548552b5dcf79f57f3f1f0b2c9dca65ec77d0fd78e8d476a7754772938a939092839283019185019080838360005b83811015610781578181015183820152602001610769565b50505050905090810190601f1680156107ae5780820380516001836020036101000a031916815260200191505b509250505060405180910390a3505095945050505050565b6000546001600160a01b031681565b7f000000000000000000000000000000000000000000000000000000000000000081565b7f000000000000000000000000000000000000000000000000000000000000000081565b6000807f00000000000000000000000000000000000000000000000000000000000000006001600160a01b0316638371744e6040518163ffffffff1660e01b815260040160206040518083038186803b15801561087957600080fd5b505afa15801561088d573d6000803e3d6000fd5b505050506040513d60208110156108a357600080fd5b810190808051906020019092919050505090506000336001600160a01b031660001b9050600082828e8e8e8a8a604051602001808867ffffffffffffffff1660c01b81526008018781526020018667ffffffffffffffff1660c01b81526008018581526020018481526020018383808284378083019250505097505050505050505060405160208183030381529060405290506109438a8a8a8a856103e9565b9d9c50505050505050505050505050565b7f000000000000000000000000000000000000000000000000000000000000000081565b6000807f00000000000000000000000000000000000000000000000000000000000000006001600160a01b0316638371744e6040518163ffffffff1660e01b815260040160206040518083038186803b1580156109d457600080fd5b505afa1580156109e8573d6000803e3d6000fd5b505050506040513d60208110156109fe57600080fd5b50516040516001600160c01b031960c083811b8216602084019081523360288501819052918f901b9092166048840152605083018d9052607083018c9052929350600091849184918f918f918f918c918c9190609001838380828437808301925050509750505050505050506040516020818303038152906040529050610a8789898984610a97565b9c9b505050505050505050505050565b604080516323b872dd60e01b815233600482015230602482015260448101869052905160009184916001600160a01b038316916323b872dd91606480830192602092919082900301818887803b158015610af057600080fd5b505af1158015610b04573d6000803e3d6000fd5b505050506040513d6020811015610b1a57600080fd5b5050600080546040805163095ea7b360e01b81526001600160a01b039283166004820152602481018a905290519184169263095ea7b3926044808401936020939083900390910190829087803b158015610b7357600080fd5b505af1158015610b87573d6000803e3d6000fd5b505050506040513d6020811015610b9d57600080fd5b505060008054604080516337e9a82760e11b8152600481018a905263ffffffff7f0000000000000000000000000000000000000000000000000000000000000000166024820152604481018990526001600160a01b03888116606483015291519190921692636fd3504e92608480820193602093909283900390910190829087803b158015610c2b57600080fd5b505af1158015610c3f573d6000803e3d6000fd5b505050506040513d6020811015610c5557600080fd5b50516040516302e91a6f60e21b81527f000000000000000000000000000000000000000000000000000000000000000063ffffffff8116600483019081527f0000000000000000000000000000000000000000000000000000000000000000602484018190526060604485019081528851606486015288519597506000957f00000000000000000000000000000000000000000000000000000000000000006001600160a01b031695630ba469bc95948b93909290916084019060208501908083838d5b83811015610d31578181015183820152602001610d19565b50505050905090810190601f168015610d5e5780820380516001836020036101000a031916815260200191505b50945050505050602060405180830381600087803b158015610d7f57600080fd5b505af1158015610d93573d6000803e3d6000fd5b505050506040513d6020811015610da957600080fd5b5051604080516020808252875182820152875193945067ffffffffffffffff80861694908816937f4c307f410548552b5dcf79f57f3f1f0b2c9dca65ec77d0fd78e8d476a7754772938a939092839283019185019080838360005b83811015610e1c578181015183820152602001610e04565b50505050905090810190601f168015610e495780820380516001836020036101000a031916815260200191505b509250505060405180910390a3505094935050505056fea26469706673582212200a98938e9a0a882db62286535b3e05dfabf4b1f92e5975e122c36cc2624640a464736f6c63430007060033",
    "linkReferences": {}
  },
  "methodIdentifiers": {
    "depositForBurn(uint64,bytes32,bytes32,uint256,bytes32,address,bytes)": "ea04e66c",
    "depositForBurnWithCaller(uint64,bytes32,bytes32,uint256,bytes32,address,bytes32,bytes)": "ded8b709",
    "domainNumber()": "52d440ea",
    "domainRecipient()": "e95f1219",
    "messageTransmitter()": "7b04c181",
    "rawDepositForBurn(uint256,bytes32,address,bytes)": "f1e788d4",
    "rawDepositForBurnWithCaller(uint256,bytes32,address,bytes32,bytes)": "042734ee",
    "tokenMessenger()": "46117830"
  },
  "id": 0
}