{
  "abi": [
    {
      "inputs": [
        {
          "internalType": "address",
          "name": "_tokenMessenger",
          "type": "address"
        },
        {
          "internalType": "uint32",
          "name": "_domainNumber",
          "type": "uint32"
        },
        {
          "internalType": "bytes32",
          "name": "_domainRecipient",
          "type": "bytes32"
        },
        {
          "internalType": "uint32",
          "name": "_domain",
          "type": "uint32"
        },
        {
          "internalType": "address payable",
          "name": "_collector",
          "type": "address"
        }
      ],
      "stateMutability": "nonpayable",
      "type": "constructor"
    },
    {
      "anonymous": false,
      "inputs": [
        {
          "indexed": true,
          "internalType": "address",
          "name": "burnToken",
          "type": "address"
        },
        {
          "indexed": false,
          "internalType": "bytes32",
          "name": "mintRecipient",
          "type": "bytes32"
        },
        {
          "indexed": false,
          "internalType": "uint256",
          "name": "amountBurned",
          "type": "uint256"
        },
        {
          "indexed": false,
          "internalType": "uint256",
          "name": "fee",
          "type": "uint256"
        },
        {
          "indexed": false,
          "internalType": "uint32",
          "name": "source",
          "type": "uint32"
        },
        {
          "indexed": false,
          "internalType": "uint32",
          "name": "dest",
          "type": "uint32"
        }
      ],
      "name": "Collect",
      "type": "event"
    },
    {
      "anonymous": false,
      "inputs": [
        {
          "indexed": false,
          "internalType": "string",
          "name": "tag",
          "type": "string"
        },
        {
          "indexed": false,
          "internalType": "uint256",
          "name": "amount",
          "type": "uint256"
        }
      ],
      "name": "Debug",
      "type": "event"
    },
    {
      "anonymous": false,
      "inputs": [
        {
          "indexed": true,
          "internalType": "uint64",
          "name": "nonce",
          "type": "uint64"
        },
        {
          "indexed": true,
          "internalType": "uint64",
          "name": "metadataNonce",
          "type": "uint64"
        },
        {
          "indexed": false,
          "internalType": "bytes",
          "name": "metadata",
          "type": "bytes"
        }
      ],
      "name": "DepositForBurnMetadata",
      "type": "event"
    },
    {
      "inputs": [],
      "name": "collector",
      "outputs": [
        {
          "internalType": "address payable",
          "name": "",
          "type": "address"
        }
      ],
      "stateMutability": "view",
      "type": "function"
    },
    {
      "inputs": [
        {
          "internalType": "uint256",
          "name": "amount",
          "type": "uint256"
        },
        {
          "internalType": "uint32",
          "name": "destinationDomain",
          "type": "uint32"
        },
        {
          "internalType": "bytes32",
          "name": "mintRecipient",
          "type": "bytes32"
        },
        {
          "internalType": "address",
          "name": "burnToken",
          "type": "address"
        },
        {
          "internalType": "bytes32",
          "name": "destinationCaller",
          "type": "bytes32"
        }
      ],
      "name": "depositForBurn",
      "outputs": [],
      "stateMutability": "nonpayable",
      "type": "function"
    },
    {
      "inputs": [
        {
          "internalType": "uint64",
          "name": "channel",
          "type": "uint64"
        },
        {
          "internalType": "bytes32",
          "name": "destinationBech32Prefix",
          "type": "bytes32"
        },
        {
          "internalType": "bytes32",
          "name": "destinationRecipient",
          "type": "bytes32"
        },
        {
          "internalType": "uint256",
          "name": "amount",
          "type": "uint256"
        },
        {
          "internalType": "bytes32",
          "name": "mintRecipient",
          "type": "bytes32"
        },
        {
          "internalType": "address",
          "name": "burnToken",
          "type": "address"
        },
        {
          "internalType": "bytes",
          "name": "memo",
          "type": "bytes"
        }
      ],
      "name": "depositForBurn",
      "outputs": [
        {
          "internalType": "uint64",
          "name": "nonce",
          "type": "uint64"
        }
      ],
      "stateMutability": "nonpayable",
      "type": "function"
    },
    {
      "inputs": [
        {
          "internalType": "uint64",
          "name": "channel",
          "type": "uint64"
        },
        {
          "internalType": "bytes32",
          "name": "destinationBech32Prefix",
          "type": "bytes32"
        },
        {
          "internalType": "bytes32",
          "name": "destinationRecipient",
          "type": "bytes32"
        },
        {
          "internalType": "uint256",
          "name": "amount",
          "type": "uint256"
        },
        {
          "internalType": "bytes32",
          "name": "mintRecipient",
          "type": "bytes32"
        },
        {
          "internalType": "address",
          "name": "burnToken",
          "type": "address"
        },
        {
          "internalType": "bytes32",
          "name": "destinationCaller",
          "type": "bytes32"
        },
        {
          "internalType": "bytes",
          "name": "memo",
          "type": "bytes"
        }
      ],
      "name": "depositForBurnWithCaller",
      "outputs": [
        {
          "internalType": "uint64",
          "name": "nonce",
          "type": "uint64"
        }
      ],
      "stateMutability": "nonpayable",
      "type": "function"
    },
    {
      "inputs": [],
      "name": "domain",
      "outputs": [
        {
          "internalType": "uint32",
          "name": "",
          "type": "uint32"
        }
      ],
      "stateMutability": "view",
      "type": "function"
    },
    {
      "inputs": [],
      "name": "domainNumber",
      "outputs": [
        {
          "internalType": "uint32",
          "name": "",
          "type": "uint32"
        }
      ],
      "stateMutability": "view",
      "type": "function"
    },
    {
      "inputs": [],
      "name": "domainRecipient",
      "outputs": [
        {
          "internalType": "bytes32",
          "name": "",
          "type": "bytes32"
        }
      ],
      "stateMutability": "view",
      "type": "function"
    },
    {
      "inputs": [
        {
          "internalType": "uint32",
          "name": "",
          "type": "uint32"
        }
      ],
      "name": "feeMap",
      "outputs": [
        {
          "internalType": "uint256",
          "name": "percFee",
          "type": "uint256"
        },
        {
          "internalType": "uint256",
          "name": "flatFee",
          "type": "uint256"
        },
        {
          "internalType": "bool",
          "name": "isInitialized",
          "type": "bool"
        }
      ],
      "stateMutability": "view",
      "type": "function"
    },
    {
      "inputs": [],
      "name": "messageTransmitter",
      "outputs": [
        {
          "internalType": "contract MessageTransmitter",
          "name": "",
          "type": "address"
        }
      ],
      "stateMutability": "view",
      "type": "function"
    },
    {
      "inputs": [],
      "name": "owner",
      "outputs": [
        {
          "internalType": "address",
          "name": "",
          "type": "address"
        }
      ],
      "stateMutability": "view",
      "type": "function"
    },
    {
      "inputs": [
        {
          "internalType": "uint256",
          "name": "amount",
          "type": "uint256"
        },
        {
          "internalType": "bytes32",
          "name": "mintRecipient",
          "type": "bytes32"
        },
        {
          "internalType": "address",
          "name": "burnToken",
          "type": "address"
        },
        {
          "internalType": "bytes",
          "name": "metadata",
          "type": "bytes"
        }
      ],
      "name": "rawDepositForBurn",
      "outputs": [
        {
          "internalType": "uint64",
          "name": "nonce",
          "type": "uint64"
        }
      ],
      "stateMutability": "nonpayable",
      "type": "function"
    },
    {
      "inputs": [
        {
          "internalType": "uint256",
          "name": "amount",
          "type": "uint256"
        },
        {
          "internalType": "bytes32",
          "name": "mintRecipient",
          "type": "bytes32"
        },
        {
          "internalType": "address",
          "name": "burnToken",
          "type": "address"
        },
        {
          "internalType": "bytes32",
          "name": "destinationCaller",
          "type": "bytes32"
        },
        {
          "internalType": "bytes",
          "name": "metadata",
          "type": "bytes"
        }
      ],
      "name": "rawDepositForBurnWithCaller",
      "outputs": [
        {
          "internalType": "uint64",
          "name": "nonce",
          "type": "uint64"
        }
      ],
      "stateMutability": "nonpayable",
      "type": "function"
    },
    {
      "inputs": [
        {
          "internalType": "uint32",
          "name": "destinationDomain",
          "type": "uint32"
        },
        {
          "internalType": "uint256",
          "name": "percFee",
          "type": "uint256"
        },
        {
          "internalType": "uint256",
          "name": "flatFee",
          "type": "uint256"
        }
      ],
      "name": "setFee",
      "outputs": [],
      "stateMutability": "nonpayable",
      "type": "function"
    },
    {
      "inputs": [],
      "name": "tokenMessenger",
      "outputs": [
        {
          "internalType": "contract TokenMessenger",
          "name": "",
          "type": "address"
        }
      ],
      "stateMutability": "view",
      "type": "function"
    },
    {
      "inputs": [
        {
          "internalType": "address payable",
          "name": "newCollector",
          "type": "address"
        }
      ],
      "name": "updateCollector",
      "outputs": [],
      "stateMutability": "nonpayable",
      "type": "function"
    },
    {
      "inputs": [
        {
          "internalType": "address",
          "name": "newOwner",
          "type": "address"
        }
      ],
      "name": "updateOwner",
      "outputs": [],
      "stateMutability": "nonpayable",
      "type": "function"
    }
  ],
  "bytecode": {
    "object": "0x61010060405234801561001157600080fd5b50604051611d7b380380611d7b833981810160405260a081101561003457600080fd5b508051602082015160408301516060840151608090940151929391929091906001600160a01b0385166100ae576040805162461bcd60e51b815260206004820152601660248201527f546f6b656e4d657373656e676572206e6f742073657400000000000000000000604482015290519081900360640190fd5b600080546001600160a01b0319166001600160a01b03878116919091179182905560408051632c12192160e01b815290519290911691632c12192191600480820192602092909190829003018186803b15801561010a57600080fd5b505afa15801561011e573d6000803e3d6000fd5b505050506040513d602081101561013457600080fd5b50516001600160601b0319606082901b166080526001600160e01b031960e086811b821660a05260c086905284811b9091169052600280546001600160a01b039384166001600160a01b031991821617909155600180549091163317905516935063ffffffff9283169216611b4a610231600039806107ef5280610a9d5280611001528061107f528061192d52508061095f528061138152806117fb52508061068e5280610817528061088252806109305280610ac55280610bde5280610df75280611029528061165b528061172552806117cc52806119555250806109a65280610c0252806111db52806113a8528061183b5250611b4a6000f3fe608060405234801561001057600080fd5b50600436106101005760003560e01c806395e9cf3111610097578063ded8b70911610066578063ded8b70914610350578063e95f1219146103fe578063ea04e66c14610418578063f1e788d4146104bd57610100565b806395e9cf31146102af578063c2fb26a6146102f3578063c316c98b146102fb578063c778ee731461032157610100565b8063880cdc31116100d3578063880cdc31146102345780638da5cb5b1461025c5780638e49425b14610264578063913e77ad146102a757610100565b8063042734ee1461010557806346117830146101e757806352d440ea1461020b5780637b04c1811461022c575b600080fd5b6101ca600480360360a081101561011b57600080fd5b8135916020810135916001600160a01b036040830135169160608101359181019060a081016080820135600160201b81111561015657600080fd5b82018360208201111561016857600080fd5b803590602001918460018302840111600160201b8311171561018957600080fd5b91908080601f01602080910402602001604051908101604052809392919081815260200183838082843760009201919091525092955061057d945050505050565b6040805167ffffffffffffffff9092168252519081900360200190f35b6101ef610bcd565b604080516001600160a01b039092168252519081900360200190f35b610213610bdc565b6040805163ffffffff9092168252519081900360200190f35b6101ef610c00565b61025a6004803603602081101561024a57600080fd5b50356001600160a01b0316610c24565b005b6101ef610ca5565b6102876004803603602081101561027a57600080fd5b503563ffffffff16610cb4565b604080519384526020840192909252151582820152519081900360600190f35b6101ef610cd8565b61025a600480360360a08110156102c557600080fd5b5080359063ffffffff602082013516906040810135906001600160a01b036060820135169060800135610ce7565b61021361107d565b61025a6004803603602081101561031157600080fd5b50356001600160a01b03166110a1565b61025a6004803603606081101561033757600080fd5b5063ffffffff8135169060208101359060400135611122565b6101ca600480360361010081101561036757600080fd5b67ffffffffffffffff823516916020810135916040820135916060810135916080820135916001600160a01b0360a0820135169160c08201359190810190610100810160e0820135600160201b8111156103c057600080fd5b8201836020820111156103d257600080fd5b803590602001918460018302840111600160201b831117156103f357600080fd5b5090925090506111d6565b61040661137f565b60408051918252519081900360200190f35b6101ca600480360360e081101561042e57600080fd5b67ffffffffffffffff823516916020810135916040820135916060810135916080820135916001600160a01b0360a0820135169181019060e0810160c0820135600160201b81111561047f57600080fd5b82018360208201111561049157600080fd5b803590602001918460018302840111600160201b831117156104b257600080fd5b5090925090506113a3565b6101ca600480360360808110156104d357600080fd5b8135916020810135916001600160a01b036040830135169190810190608081016060820135600160201b81111561050957600080fd5b82018360208201111561051b57600080fd5b803590602001918460018302840111600160201b8311171561053c57600080fd5b91908080601f01602080910402602001604051908101604052809392919081815260200183838082843760009201919091525092955061154a945050505050565b604080516323b872dd60e01b815233600482015230602482015260448101879052905160009185916001600160a01b038316916323b872dd91606480830192602092919082900301818887803b1580156105d657600080fd5b505af11580156105ea573d6000803e3d6000fd5b505050506040513d602081101561060057600080fd5b5050600080546040805163095ea7b360e01b81526001600160a01b039283166004820152602481018b905290519184169263095ea7b3926044808401936020939083900390910190829087803b15801561065957600080fd5b505af115801561066d573d6000803e3d6000fd5b505050506040513d602081101561068357600080fd5b50600090506106b2887f0000000000000000000000000000000000000000000000000000000000000000611a5c565b60408051602081018b905281815260068183015265185b5bdd5b9d60d21b606082015290519192507f3c5ad147104e56be34a9176a6692f7df8d2f4b29a5af06bc6b98970d329d6577919081900360800190a160408051602081018390528181526003818301526266656560e81b606082015290517f3c5ad147104e56be34a9176a6692f7df8d2f4b29a5af06bc6b98970d329d65779181900360800190a16002546040805163a9059cbb60e01b81526001600160a01b0392831660048201526024810184905290519184169163a9059cbb916044808201926020929091908290030181600087803b1580156107a757600080fd5b505af11580156107bb573d6000803e3d6000fd5b505050506040513d60208110156107d157600080fd5b505060408051888152828a03602082015280820183905263ffffffff7f0000000000000000000000000000000000000000000000000000000000000000811660608301527f000000000000000000000000000000000000000000000000000000000000000016608082015290516001600160a01b03881691600080516020611af5833981519152919081900360a00190a26000805460408051637c2b6edb60e11b8152600481018c905263ffffffff7f0000000000000000000000000000000000000000000000000000000000000000166024820152604481018b90526001600160a01b038a81166064830152608482018a90529151919092169263f856ddb69260a480820193602093909283900390910190829087803b1580156108f557600080fd5b505af1158015610909573d6000803e3d6000fd5b505050506040513d602081101561091f57600080fd5b505160405163f7259a7560e01b81527f000000000000000000000000000000000000000000000000000000000000000063ffffffff8116600483019081527f000000000000000000000000000000000000000000000000000000000000000060248401819052604484018a90526080606485019081528951608486015289519598506000957f00000000000000000000000000000000000000000000000000000000000000006001600160a01b03169563f7259a7595948d938d939192909160a49091019060208501908083838e5b83811015610a065781810151838201526020016109ee565b50505050905090810190601f168015610a335780820380516001836020036101000a031916815260200191505b5095505050505050602060405180830381600087803b158015610a5557600080fd5b505af1158015610a69573d6000803e3d6000fd5b505050506040513d6020811015610a7f57600080fd5b5051604080518a8152848c03602082015280820185905263ffffffff7f0000000000000000000000000000000000000000000000000000000000000000811660608301527f000000000000000000000000000000000000000000000000000000000000000016608082015290519192506001600160a01b03891691600080516020611af58339815191529181900360a00190a28067ffffffffffffffff168467ffffffffffffffff167f4c307f410548552b5dcf79f57f3f1f0b2c9dca65ec77d0fd78e8d476a7754772876040518080602001828103825283818151815260200191508051906020019080838360005b83811015610b87578181015183820152602001610b6f565b50505050905090810190601f168015610bb45780820380516001836020036101000a031916815260200191505b509250505060405180910390a350505095945050505050565b6000546001600160a01b031681565b7f000000000000000000000000000000000000000000000000000000000000000081565b7f000000000000000000000000000000000000000000000000000000000000000081565b6001546001600160a01b03163314610c83576040805162461bcd60e51b815260206004820152601b60248201527f4f6e6c79206f776e65722063616e20757064617465206f776e65720000000000604482015290519081900360640190fd5b600180546001600160a01b0319166001600160a01b0392909216919091179055565b6001546001600160a01b031681565b60036020526000908152604090208054600182015460029092015490919060ff1683565b6002546001600160a01b031681565b604080516323b872dd60e01b815233600482015230602482015260448101879052905183916001600160a01b038316916323b872dd916064808201926020929091908290030181600087803b158015610d3f57600080fd5b505af1158015610d53573d6000803e3d6000fd5b505050506040513d6020811015610d6957600080fd5b5050600080546040805163095ea7b360e01b81526001600160a01b039283166004820152602481018a905290519184169263095ea7b3926044808401936020939083900390910190829087803b158015610dc257600080fd5b505af1158015610dd6573d6000803e3d6000fd5b505050506040513d6020811015610dec57600080fd5b5060009050610e1b877f0000000000000000000000000000000000000000000000000000000000000000611a5c565b6002546040805163a9059cbb60e01b81526001600160a01b0392831660048201526024810184905290519293509084169163a9059cbb916044808201926020929091908290030181600087803b158015610e7457600080fd5b505af1158015610e88573d6000803e3d6000fd5b505050506040513d6020811015610e9e57600080fd5b505082610f445760008054604080516337e9a82760e11b8152848b03600482015263ffffffff8a166024820152604481018990526001600160a01b03888116606483015291519190921692636fd3504e92608480820193602093909283900390910190829087803b158015610f1257600080fd5b505af1158015610f26573d6000803e3d6000fd5b505050506040513d6020811015610f3c57600080fd5b50610fe59050565b6000805460408051637c2b6edb60e11b8152848b03600482015263ffffffff8a166024820152604481018990526001600160a01b038881166064830152608482018890529151919092169263f856ddb69260a480820193602093909283900390910190829087803b158015610fb857600080fd5b505af1158015610fcc573d6000803e3d6000fd5b505050506040513d6020811015610fe257600080fd5b50505b60408051868152828903602082015280820183905263ffffffff7f0000000000000000000000000000000000000000000000000000000000000000811660608301527f000000000000000000000000000000000000000000000000000000000000000016608082015290516001600160a01b03861691600080516020611af5833981519152919081900360a00190a250505050505050565b7f000000000000000000000000000000000000000000000000000000000000000081565b6001546001600160a01b03163314611100576040805162461bcd60e51b815260206004820152601f60248201527f4f6e6c79206f776e65722063616e2075706461746520636f6c6c6563746f7200604482015290519081900360640190fd5b600280546001600160a01b0319166001600160a01b0392909216919091179055565b6001546001600160a01b03163314611181576040805162461bcd60e51b815260206004820152601e60248201527f4f6e6c7920746865206f776e65722063616e2075706461746520666565730000604482015290519081900360640190fd5b604080516060810182529283526020808401928352600184830181815263ffffffff96909616600090815260039092529190209251835590519082015590516002909101805460ff1916911515919091179055565b6000807f00000000000000000000000000000000000000000000000000000000000000006001600160a01b0316638371744e6040518163ffffffff1660e01b815260040160206040518083038186803b15801561123257600080fd5b505afa158015611246573d6000803e3d6000fd5b505050506040513d602081101561125c57600080fd5b5051604080516382c947b760e01b8152336004820152905191925060009173__$0163656a4df1aac712416ff9309e0048e0$__916382c947b7916024808301926020929190829003018186803b1580156112b557600080fd5b505af41580156112c9573d6000803e3d6000fd5b505050506040513d60208110156112df57600080fd5b81019080805190602001909291905050509050600082828e8e8e8a8a604051602001808867ffffffffffffffff1660c01b81526008018781526020018667ffffffffffffffff1660c01b815260080185815260200184815260200183838082843780830192505050975050505050505050604051602081830303815290604052905061136e8a8a8a8a8561057d565b9d9c50505050505050505050505050565b7f000000000000000000000000000000000000000000000000000000000000000081565b6000807f00000000000000000000000000000000000000000000000000000000000000006001600160a01b0316638371744e6040518163ffffffff1660e01b815260040160206040518083038186803b1580156113ff57600080fd5b505afa158015611413573d6000803e3d6000fd5b505050506040513d602081101561142957600080fd5b5051604080516382c947b760e01b8152336004820152905191925060009173__$0163656a4df1aac712416ff9309e0048e0$__916382c947b7916024808301926020929190829003018186803b15801561148257600080fd5b505af4158015611496573d6000803e3d6000fd5b505050506040513d60208110156114ac57600080fd5b81019080805190602001909291905050509050600082828d8d8d8a8a604051602001808867ffffffffffffffff1660c01b81526008018781526020018667ffffffffffffffff1660c01b815260080185815260200184815260200183838082843780830192505050975050505050505050604051602081830303815290604052905061153a8989898461154a565b9c9b505050505050505050505050565b604080516323b872dd60e01b815233600482015230602482015260448101869052905160009184916001600160a01b038316916323b872dd91606480830192602092919082900301818887803b1580156115a357600080fd5b505af11580156115b7573d6000803e3d6000fd5b505050506040513d60208110156115cd57600080fd5b5050600080546040805163095ea7b360e01b81526001600160a01b039283166004820152602481018a905290519184169263095ea7b3926044808401936020939083900390910190829087803b15801561162657600080fd5b505af115801561163a573d6000803e3d6000fd5b505050506040513d602081101561165057600080fd5b506000905061167f877f0000000000000000000000000000000000000000000000000000000000000000611a5c565b6002546040805163a9059cbb60e01b81526001600160a01b0392831660048201526024810184905290519293509084169163a9059cbb916044808201926020929091908290030181600087803b1580156116d857600080fd5b505af11580156116ec573d6000803e3d6000fd5b505050506040513d602081101561170257600080fd5b505060008054604080516337e9a82760e11b8152848b03600482015263ffffffff7f0000000000000000000000000000000000000000000000000000000000000000166024820152604481018a90526001600160a01b03898116606483015291519190921692636fd3504e92608480820193602093909283900390910190829087803b15801561179157600080fd5b505af11580156117a5573d6000803e3d6000fd5b505050506040513d60208110156117bb57600080fd5b50516040516302e91a6f60e21b81527f000000000000000000000000000000000000000000000000000000000000000063ffffffff8116600483019081527f0000000000000000000000000000000000000000000000000000000000000000602484018190526060604485019081528951606486015289519598506000957f00000000000000000000000000000000000000000000000000000000000000006001600160a01b031695630ba469bc95948c93909290916084019060208501908083838d5b8381101561189757818101518382015260200161187f565b50505050905090810190601f1680156118c45780820380516001836020036101000a031916815260200191505b50945050505050602060405180830381600087803b1580156118e557600080fd5b505af11580156118f9573d6000803e3d6000fd5b505050506040513d602081101561190f57600080fd5b505160408051898152848b03602082015280820185905263ffffffff7f0000000000000000000000000000000000000000000000000000000000000000811660608301527f000000000000000000000000000000000000000000000000000000000000000016608082015290519192506001600160a01b03881691600080516020611af58339815191529181900360a00190a28067ffffffffffffffff168467ffffffffffffffff167f4c307f410548552b5dcf79f57f3f1f0b2c9dca65ec77d0fd78e8d476a7754772876040518080602001828103825283818151815260200191508051906020019080838360005b83811015611a175781810151838201526020016119ff565b50505050905090810190601f168015611a445780820380516001836020036101000a031916815260200191505b509250505060405180910390a3505050949350505050565b63ffffffff811660009081526003602090815260408083208151606081018352815481526001820154938101939093526002015460ff161515908201819052611add576040805162461bcd60e51b815260206004820152600e60248201526d2332b2903737ba103337bab7321760911b604482015290519081900360640190fd5b60208101518151612710908602040194935050505056fe382e1aebaff328a31819e42bd64697c3ad7d18ad88fd5030432abe41d444dab3a26469706673582212201b7535572870143c1b9e4f0e2eeb7326544a4fb6af4690e858bf8409be8b53c964736f6c63430007060033",
    "linkReferences": {
      "lib/evm-cctp-contracts/src/messages/Message.sol": {
        "Message": [
          {
            "start": 5293,
            "length": 20
          },
          {
            "start": 5754,
            "length": 20
          }
        ]
      }
    }
  },
  "methodIdentifiers": {
    "collector()": "913e77ad",
    "depositForBurn(uint256,uint32,bytes32,address,bytes32)": "95e9cf31",
    "depositForBurn(uint64,bytes32,bytes32,uint256,bytes32,address,bytes)": "ea04e66c",
    "depositForBurnWithCaller(uint64,bytes32,bytes32,uint256,bytes32,address,bytes32,bytes)": "ded8b709",
    "domain()": "c2fb26a6",
    "domainNumber()": "52d440ea",
    "domainRecipient()": "e95f1219",
    "feeMap(uint32)": "8e49425b",
    "messageTransmitter()": "7b04c181",
    "owner()": "8da5cb5b",
    "rawDepositForBurn(uint256,bytes32,address,bytes)": "f1e788d4",
    "rawDepositForBurnWithCaller(uint256,bytes32,address,bytes32,bytes)": "042734ee",
    "setFee(uint32,uint256,uint256)": "c778ee73",
    "tokenMessenger()": "46117830",
    "updateCollector(address)": "c316c98b",
    "updateOwner(address)": "880cdc31"
  },
  "id": 35
}