{
  "abi": [
    {
      "inputs": [
        {
          "internalType": "address",
          "name": "_tokenMessenger",
          "type": "address"
        },
        {
          "internalType": "uint32",
          "name": "_domainNumber",
          "type": "uint32"
        },
        {
          "internalType": "bytes32",
          "name": "_domainRecipient",
          "type": "bytes32"
        }
      ],
      "stateMutability": "nonpayable",
      "type": "constructor"
    },
    {
      "anonymous": false,
      "inputs": [
        {
          "indexed": true,
          "internalType": "uint64",
          "name": "nonce",
          "type": "uint64"
        },
        {
          "indexed": true,
          "internalType": "uint64",
          "name": "metadataNonce",
          "type": "uint64"
        },
        {
          "indexed": false,
          "internalType": "bytes",
          "name": "metadata",
          "type": "bytes"
        }
      ],
      "name": "DepositForBurnMetadata",
      "type": "event"
    },
    {
      "inputs": [
        {
          "internalType": "uint64",
          "name": "channel",
          "type": "uint64"
        },
        {
          "internalType": "bytes32",
          "name": "destinationBech32Prefix",
          "type": "bytes32"
        },
        {
          "internalType": "bytes32",
          "name": "destinationRecipient",
          "type": "bytes32"
        },
        {
          "internalType": "uint256",
          "name": "amount",
          "type": "uint256"
        },
        {
          "internalType": "bytes32",
          "name": "mintRecipient",
          "type": "bytes32"
        },
        {
          "internalType": "address",
          "name": "burnToken",
          "type": "address"
        },
        {
          "internalType": "bytes",
          "name": "memo",
          "type": "bytes"
        }
      ],
      "name": "depositForBurn",
      "outputs": [
        {
          "internalType": "uint64",
          "name": "nonce",
          "type": "uint64"
        }
      ],
      "stateMutability": "nonpayable",
      "type": "function"
    },
    {
      "inputs": [
        {
          "internalType": "uint64",
          "name": "channel",
          "type": "uint64"
        },
        {
          "internalType": "bytes32",
          "name": "destinationBech32Prefix",
          "type": "bytes32"
        },
        {
          "internalType": "bytes32",
          "name": "destinationRecipient",
          "type": "bytes32"
        },
        {
          "internalType": "uint256",
          "name": "amount",
          "type": "uint256"
        },
        {
          "internalType": "bytes32",
          "name": "mintRecipient",
          "type": "bytes32"
        },
        {
          "internalType": "address",
          "name": "burnToken",
          "type": "address"
        },
        {
          "internalType": "bytes32",
          "name": "destinationCaller",
          "type": "bytes32"
        },
        {
          "internalType": "bytes",
          "name": "memo",
          "type": "bytes"
        }
      ],
      "name": "depositForBurnWithCaller",
      "outputs": [
        {
          "internalType": "uint64",
          "name": "nonce",
          "type": "uint64"
        }
      ],
      "stateMutability": "nonpayable",
      "type": "function"
    },
    {
      "inputs": [],
      "name": "domainNumber",
      "outputs": [
        {
          "internalType": "uint32",
          "name": "",
          "type": "uint32"
        }
      ],
      "stateMutability": "view",
      "type": "function"
    },
    {
      "inputs": [],
      "name": "domainRecipient",
      "outputs": [
        {
          "internalType": "bytes32",
          "name": "",
          "type": "bytes32"
        }
      ],
      "stateMutability": "view",
      "type": "function"
    },
    {
      "inputs": [],
      "name": "messageTransmitter",
      "outputs": [
        {
          "internalType": "contract MessageTransmitter",
          "name": "",
          "type": "address"
        }
      ],
      "stateMutability": "view",
      "type": "function"
    },
    {
      "inputs": [
        {
          "internalType": "uint256",
          "name": "amount",
          "type": "uint256"
        },
        {
          "internalType": "bytes32",
          "name": "mintRecipient",
          "type": "bytes32"
        },
        {
          "internalType": "address",
          "name": "burnToken",
          "type": "address"
        },
        {
          "internalType": "bytes",
          "name": "metadata",
          "type": "bytes"
        }
      ],
      "name": "rawDepositForBurn",
      "outputs": [
        {
          "internalType": "uint64",
          "name": "nonce",
          "type": "uint64"
        }
      ],
      "stateMutability": "nonpayable",
      "type": "function"
    },
    {
      "inputs": [
        {
          "internalType": "uint256",
          "name": "amount",
          "type": "uint256"
        },
        {
          "internalType": "bytes32",
          "name": "mintRecipient",
          "type": "bytes32"
        },
        {
          "internalType": "address",
          "name": "burnToken",
          "type": "address"
        },
        {
          "internalType": "bytes32",
          "name": "destinationCaller",
          "type": "bytes32"
        },
        {
          "internalType": "bytes",
          "name": "metadata",
          "type": "bytes"
        }
      ],
      "name": "rawDepositForBurnWithCaller",
      "outputs": [
        {
          "internalType": "uint64",
          "name": "nonce",
          "type": "uint64"
        }
      ],
      "stateMutability": "nonpayable",
      "type": "function"
    },
    {
      "inputs": [],
      "name": "tokenMessenger",
      "outputs": [
        {
          "internalType": "contract TokenMessenger",
          "name": "",
          "type": "address"
        }
      ],
      "stateMutability": "view",
      "type": "function"
    }
  ],
  "bytecode": {
    "object": "0x60e060405234801561001057600080fd5b50604051610fd0380380610fd083398101604081905261002f9161013e565b6001600160a01b0383166100895760405162461bcd60e51b815260206004820152601660248201527f546f6b656e4d657373656e676572206e6f742073657400000000000000000000604482015260640160405180910390fd5b600080546001600160a01b0319166001600160a01b03851690811790915560408051632c12192160e01b81529051632c121921916004808201926020929091908290030181865afa1580156100e2573d6000803e3d6000fd5b505050506040513d601f19601f82011682018060405250810190610106919061018a565b6001600160a01b031660805263ffffffff90911660a05260c052506101ae565b6001600160a01b038116811461013b57600080fd5b50565b60008060006060848603121561015357600080fd5b835161015e81610126565b602085015190935063ffffffff8116811461017857600080fd5b80925050604084015190509250925092565b60006020828403121561019c57600080fd5b81516101a781610126565b9392505050565b60805160a05160c051610dae61022260003960008181610163015281816103b5015261084201526000818160ed015281816102cc0152818161039401528181610760015261082101526000818161012901528181610365015281816104950152818161057b01526107f20152610dae6000f3fe608060405234801561001057600080fd5b50600436106100885760003560e01c8063ded8b7091161005b578063ded8b7091461014b578063e95f12191461015e578063ea04e66c14610193578063f1e788d4146101a657600080fd5b8063042734ee1461008d57806346117830146100bd57806352d440ea146100e85780637b04c18114610124575b600080fd5b6100a061009b3660046109d8565b6101b9565b6040516001600160401b0390911681526020015b60405180910390f35b6000546100d0906001600160a01b031681565b6040516001600160a01b0390911681526020016100b4565b61010f7f000000000000000000000000000000000000000000000000000000000000000081565b60405163ffffffff90911681526020016100b4565b6100d07f000000000000000000000000000000000000000000000000000000000000000081565b6100a0610159366004610aa2565b610490565b6101857f000000000000000000000000000000000000000000000000000000000000000081565b6040519081526020016100b4565b6100a06101a1366004610b3b565b610576565b6100a06101b4366004610bc7565b61064d565b6040516323b872dd60e01b81523360048201523060248201526044810186905260009084906001600160a01b038216906323b872dd906064016020604051808303816000875af1158015610211573d6000803e3d6000fd5b505050506040513d601f19601f820116820180604052508101906102359190610c27565b5060005460405163095ea7b360e01b81526001600160a01b039182166004820152602481018990529082169063095ea7b3906044016020604051808303816000875af1158015610289573d6000803e3d6000fd5b505050506040513d601f19601f820116820180604052508101906102ad9190610c27565b50600054604051637c2b6edb60e11b81526004810189905263ffffffff7f0000000000000000000000000000000000000000000000000000000000000000166024820152604481018890526001600160a01b038781166064830152608482018790529091169063f856ddb69060a4016020604051808303816000875af115801561033b573d6000803e3d6000fd5b505050506040513d601f19601f8201168201806040525081019061035f9190610c50565b915060007f00000000000000000000000000000000000000000000000000000000000000006001600160a01b031663f7259a757f00000000000000000000000000000000000000000000000000000000000000007f000000000000000000000000000000000000000000000000000000000000000088886040518563ffffffff1660e01b81526004016103f59493929190610cb3565b6020604051808303816000875af1158015610414573d6000803e3d6000fd5b505050506040513d601f19601f820116820180604052508101906104389190610c50565b9050806001600160401b0316836001600160401b03167f4c307f410548552b5dcf79f57f3f1f0b2c9dca65ec77d0fd78e8d476a77547728660405161047d9190610ce8565b60405180910390a3505095945050505050565b6000807f00000000000000000000000000000000000000000000000000000000000000006001600160a01b0316638371744e6040518163ffffffff1660e01b8152600401602060405180830381865afa1580156104f1573d6000803e3d6000fd5b505050506040513d601f19601f820116820180604052508101906105159190610c50565b90506000336001600160a01b031660001b9050600082828e8e8e8a8a6040516020016105479796959493929190610cfb565b60405160208183030381529060405290506105658a8a8a8a856101b9565b9d9c50505050505050505050505050565b6000807f00000000000000000000000000000000000000000000000000000000000000006001600160a01b0316638371744e6040518163ffffffff1660e01b8152600401602060405180830381865afa1580156105d7573d6000803e3d6000fd5b505050506040513d601f19601f820116820180604052508101906105fb9190610c50565b604051909150339060009061062090849084908f908f908f908c908c90602001610cfb565b604051602081830303815290604052905061063d8989898461064d565b9c9b505050505050505050505050565b6040516323b872dd60e01b81523360048201523060248201526044810185905260009083906001600160a01b038216906323b872dd906064016020604051808303816000875af11580156106a5573d6000803e3d6000fd5b505050506040513d601f19601f820116820180604052508101906106c99190610c27565b5060005460405163095ea7b360e01b81526001600160a01b039182166004820152602481018890529082169063095ea7b3906044016020604051808303816000875af115801561071d573d6000803e3d6000fd5b505050506040513d601f19601f820116820180604052508101906107419190610c27565b506000546040516337e9a82760e11b81526004810188905263ffffffff7f0000000000000000000000000000000000000000000000000000000000000000166024820152604481018790526001600160a01b03868116606483015290911690636fd3504e906084016020604051808303816000875af11580156107c8573d6000803e3d6000fd5b505050506040513d601f19601f820116820180604052508101906107ec9190610c50565b915060007f00000000000000000000000000000000000000000000000000000000000000006001600160a01b0316630ba469bc7f00000000000000000000000000000000000000000000000000000000000000007f0000000000000000000000000000000000000000000000000000000000000000876040518463ffffffff1660e01b815260040161088093929190610d4a565b6020604051808303816000875af115801561089f573d6000803e3d6000fd5b505050506040513d601f19601f820116820180604052508101906108c39190610c50565b9050806001600160401b0316836001600160401b03167f4c307f410548552b5dcf79f57f3f1f0b2c9dca65ec77d0fd78e8d476a7754772866040516109089190610ce8565b60405180910390a35050949350505050565b80356001600160a01b038116811461093157600080fd5b919050565b634e487b7160e01b600052604160045260246000fd5b600082601f83011261095d57600080fd5b81356001600160401b038082111561097757610977610936565b604051601f8301601f19908116603f0116810190828211818310171561099f5761099f610936565b816040528381528660208588010111156109b857600080fd5b836020870160208301376000602085830101528094505050505092915050565b600080600080600060a086880312156109f057600080fd5b8535945060208601359350610a076040870161091a565b92506060860135915060808601356001600160401b03811115610a2957600080fd5b610a358882890161094c565b9150509295509295909350565b6001600160401b0381168114610a5757600080fd5b50565b60008083601f840112610a6c57600080fd5b5081356001600160401b03811115610a8357600080fd5b602083019150836020828501011115610a9b57600080fd5b9250929050565b60008060008060008060008060006101008a8c031215610ac157600080fd5b8935610acc81610a42565b985060208a0135975060408a0135965060608a0135955060808a01359450610af660a08b0161091a565b935060c08a0135925060e08a01356001600160401b03811115610b1857600080fd5b610b248c828d01610a5a565b915080935050809150509295985092959850929598565b60008060008060008060008060e0898b031215610b5757600080fd5b8835610b6281610a42565b975060208901359650604089013595506060890135945060808901359350610b8c60a08a0161091a565b925060c08901356001600160401b03811115610ba757600080fd5b610bb38b828c01610a5a565b999c989b5096995094979396929594505050565b60008060008060808587031215610bdd57600080fd5b8435935060208501359250610bf46040860161091a565b915060608501356001600160401b03811115610c0f57600080fd5b610c1b8782880161094c565b91505092959194509250565b600060208284031215610c3957600080fd5b81518015158114610c4957600080fd5b9392505050565b600060208284031215610c6257600080fd5b8151610c4981610a42565b6000815180845260005b81811015610c9357602081850181015186830182015201610c77565b506000602082860101526020601f19601f83011685010191505092915050565b63ffffffff85168152836020820152826040820152608060608201526000610cde6080830184610c6d565b9695505050505050565b602081526000610c496020830184610c6d565b60006001600160401b0360c01b808a60c01b168352886008840152808860c01b166028840152508560308301528460508301528284607084013750600091016070019081529695505050505050565b63ffffffff84168152826020820152606060408201526000610d6f6060830184610c6d565b9594505050505056fea2646970667358221220586e44114a8105aa932832b2f6ce6af849dee390c0ba02b840dd4f77015ade4464736f6c63430008160033",
    "linkReferences": {}
  },
  "methodIdentifiers": {
    "depositForBurn(uint64,bytes32,bytes32,uint256,bytes32,address,bytes)": "ea04e66c",
    "depositForBurnWithCaller(uint64,bytes32,bytes32,uint256,bytes32,address,bytes32,bytes)": "ded8b709",
    "domainNumber()": "52d440ea",
    "domainRecipient()": "e95f1219",
    "messageTransmitter()": "7b04c181",
    "rawDepositForBurn(uint256,bytes32,address,bytes)": "f1e788d4",
    "rawDepositForBurnWithCaller(uint256,bytes32,address,bytes32,bytes)": "042734ee",
    "tokenMessenger()": "46117830"
  },
  "id": 0
}